S01700004D6964695F636F6E74726F6C6C65722E73726563E7
S11300000C942A000C943C000C943C000C943C008E
S11300100C943C000C943C000C943C000C943C006C
S11300200C943C000C943C000C943C000C943C005C
S11300300C943C000C943C000C943C000C943C004C
S11300400C943C000C943C000C943C000C943C003C
S11300500C943C0011241FBECFE5D8E0DEBFCDBF19
S113006020E0A0E6B0E001C01D92A436B207E1F79B
S11300700E943E000C94B9030C940000CF93DF93CC
S1130080CDB7DEB728970FB6F894DEBF0FBECDBF4D
S11300900E949F030E9468001D821E821F82188690
S11300A019821A821B821C82BE016F5F7F4FCE01B0
S11300B005960E94BF008D810E94B5032FEF89E64B
S11300C098E1215080409040E1F700C00000E4CF67
S11300D041E06FE080E00E941E0340E06FE081E0B9
S11300E00E941E0341E06FE081E00E9456030895E0
S11300F0CF92DF92EF92FF92CF93DF9361E08AE099
S11301000E942F0261E08BE00E942F0261E08CE0EC
S11301100E942F0261E08DE00E942F02C0E0C12CFA
S1130120D12C760121C0DAE0DC0F60E08D2F0E9433
S11301302F0281E00E948E0380958F70CC0CDD1C11
S1130140EE1CFF1CCC0CDD1CEE1CFF1CCC0CDD1CBF
S1130150EE1CFF1CCC0CDD1CEE1CFF1CC82A61E04D
S11301608D2F0E942F02CF5FC430E8F2C701B60181
S1130170DF91CF91FF90EF90DF90CF9008958F9211
S11301809F92AF92BF92CF92DF92EF92FF920F9322
S11301901F93CF93DF938C01EB010E9478004B01F6
S11301A05C0180E055C075016401082E04C0F6941A
S11301B0E794D794C7940A94D2F740916000509181
S11301C061006091620070916300082E04C076950E
S11301D06795579547950A94D2F74C255D256E256A
S11301E07F2540FF34C0C0FE1AC041E050E0082E15
S11301F002C0440F551F0A94E2F7052E000C660B4B
S1130200770BF801C080D180E280F3804C295D290E
S11302106E297F29408351836283738318C041E030
S113022050E0082E02C0440F551F0A94E2F7052E31
S1130230000C660B770BC880D980EA80FB804C29C0
S11302405D296E297F29488359836A837B838F5F65
S1130250803208F4A8CF8092600090926100A0924E
S11302606200B0926300DF91CF911F910F91FF90D4
S1130270EF90DF90CF90BF90AF909F908F900895B4
S11302809DEC899F912D11249695969596956623BC
S113029009F472C0613009F0E1C0923021F118F420
S11302A0913039F008959330C1F1943009F44CC081
S11302B008959DEC899F912D112496959695969578
S11302C0990F292F220F220F920F891B4AB321E085
S11302D030E0B90102C0660F771F8A95E2F7CB01BF
S11302E0842B8ABB08959DEC899F912D11249295AE
S11302F09F70990F990F292F220F220F920F891B9C
S113030047B321E030E0B90102C0660F771F8A9538
S1130310E2F7CB01842B87BB089599E8899F912D3F
S1130320112492959F707EE1979F8019112444B304
S113033021E030E0B90102C0660F771F8A95E2F729
S1130340CB01842B84BB08959DEC899F912D1124AE
S113035092959695977078E2979F8019112441B3EE
S113036021E030E0B90102C0660F771F8A95E2F7F9
S1130370CB01842B81BB0895923029F118F491307C
S113038039F008959330D1F1943009F44FC00895B1
S11303909DEC899F912D1124969596959695990F8C
S11303A0292F220F220F920F891B4AB321E030E03C
S11303B0B90102C0660F771F8A95E2F7CB018095D9
S11303C084238ABB08959DEC899F912D11249295D5
S11303D09F70990F990F292F220F220F920F891BBB
S11303E047B321E030E0B90102C0660F771F8A9558
S11303F0E2F7CB018095842387BB089599E8899F10
S1130400912D112492959F707EE1979F801911245C
S113041044B321E030E0B90102C0660F771F8A952A
S1130420E2F7CB018095842384BB08959DEC899FDA
S1130430912D112492959695977078E2979F801943
S1130440112441B321E030E0B90102C0660F771FE7
S11304508A95E2F7CB018095842381BB08959DECB6
S1130460899F912D1124969596959695662309F466
S113047072C0613009F0E1C0923021F118F491307A
S113048039F008959330C1F1943009F44CC00895C3
S11304909DEC899F912D1124969596959695990F8B
S11304A0292F220F220F920F891B4BB321E030E03A
S11304B0B90102C0660F771F8A95E2F7CB01842B3E
S11304C08BBB08959DEC899F912D112492959F706B
S11304D0990F990F292F220F220F920F891B48B3CE
S11304E021E030E0B90102C0660F771F8A95E2F778
S11304F0CB01842B88BB089599E8899F912D112401
S113050092959F707EE1979F8019112445B321E055
S113051030E0B90102C0660F771F8A95E2F7CB017C
S1130520842B85BB08959DEC899F912D1124929570
S11305309695977078E2979F8019112442B321E031
S113054030E0B90102C0660F771F8A95E2F7CB014C
S1130550842B82BB0895923029F118F4913039F03C
S113056008959330D1F1943009F44FC008959DEC6F
S1130570899F912D1124969596959695990F292FDB
S1130580220F220F920F891B4BB321E030E0B901F7
S113059002C0660F771F8A95E2F7CB01809584230A
S11305A08BBB08959DEC899F912D112492959F708A
S11305B0990F990F292F220F220F920F891B48B3ED
S11305C021E030E0B90102C0660F771F8A95E2F797
S11305D0CB018095842388BB089599E8899F912D48
S11305E0112492959F707EE1979F8019112445B341
S11305F021E030E0B90102C0660F771F8A95E2F767
S1130600CB018095842385BB08959DEC899F912D12
S1130610112492959695977078E2979F80191124EA
S113062042B321E030E0B90102C0660F771F8A951A
S1130630E2F7CB018095842382BB08954423D1F053
S1130640413099F5813051F028F0823059F08330EF
S113065069F008958AB3682B6ABB089587B3682B41
S113066067BB089584B3682B64BB089581B3682B7A
S113067061BB0895813059F028F0823069F08330ED
S113068081F008958AB3609568236ABB089587B39F
S11306906095682367BB089584B36095682364BB41
S11306A0089581B36095682361BB08954423D1F014
S11306B0413099F5813051F028F0823059F083307F
S11306C069F008958BB3682B6BBB089588B3682BCE
S11306D068BB089585B3682B65BB089582B3682B06
S11306E062BB0895813059F028F0823069F083307C
S11306F081F008958BB3609568236BBB089588B32C
S11307006095682368BB089585B36095682365BBCD
S1130710089582B36095682362BB0895813041F0E7
S113072028F0823039F0833039F008C089B3089555
S113073086B3089583B3089580B30895089561E05E
S113074089E20E94400160E088E20E94400188E062
S113075089B986E880BD8AB18B7F8AB98AB18860FD
S11307608AB98AB180618AB908958CB95D9BFECF3C
S10907700895F894FFCF88
S9030000FC
